S01900004B4559424F4152445F4558414D504C45312E737265631E
S113000004C100001FC100001DC100001BC100008D
S113001019C1000017C1000015C1000013C1000080
S113002011C100000FC100000DC100000BC1000090
S113003009C1000007C1000005C1000003C10000A0
S113004001C10000FFC00000FDC00000FBC00000B3
S1130050F9C00000F7C00000F5C00000F3C00000C4
S1130060F1C00000EFC00000EDC00000EBC00000D4
S1130070E9C00000E7C00000E5C00000E3C00000E4
S1130080E1C00000DFC00000DDC00000DBC00000F4
S1130090D9C00000D7C00000D5C00000D3C0000004
S11300A0D1C00000CFC00000CDC00000EAC10000F4
S11300B0C9C00000C7C00000C5C00000C3C0000024
S11300C0C1C00000BFC00000BDC00000BBC0000034
S11300D0B9C00000B7C00000B5C00000B3C0000044
S11300E0B1C00000AFC00000ADC00000ABC0000054
S11300F0A9C00000A7C00000A5C00000A3C0000064
S1130100A1C000009FC000009DC000009BC0000073
S113011099C0000097C0000095C0000093C0000083
S113012091C000008FC000008DC000008BC0000093
S113013089C0000087C0000085C0000083C00000A3
S113014081C000007FC000007DC000007BC00000B3
S113015079C0000077C0000075C0000073C00000C3
S113016071C000006FC000006DC000006BC00000D3
S113017069C0000067C0000065C0000063C00000E3
S113018061C000005FC000005DC000005BC00000F3
S113019059C0000057C0000055C0000053C0000003
S11301A051C000004FC000004DC000004BC0000013
S11301B049C0000047C0000045C0000043C0000023
S11301C041C000003FC000003DC000003BC0000033
S11301D039C0000037C0000035C0000033C0000043
S11301E031C000002FC000002DC000002BC0000053
S11301F029C000000C945E130C9411143E0E410EA1
S1130200440E470E4A0E4D0E500E11241FBECFEF62
S1130210CDBFD7E2DEBF12E2A0E0B0E2E8EBFAE243
S113022002C005900D92AC31B107D9F723E2ACE1DD
S1130230B2E201C01D92A037B207E1F70E94FD149B
S11302400C945A15DDCE8091212290912222892B83
S113025041F00E94260A1CBEE0910020F09101208A
S113026009950895CF93DF9300D0CDB7DEB7A4E10D
S1130270B0E229E130E281E090E04C91E42FE69590
S1130280E695E69550E2E59FF0011124FA5F477088
S1130290BC0102C0660F771F4A95E2F762834D9155
S11302A0E42FE695E695E69570E2E79FF0011124C8
S11302B0E05FF94F4770E40FF11D4FB74A83F8949C
S11302C05A814081477040834081486140835FBFC9
S11302D0A217B30791F6A7E0B0E244E150E221E0AF
S11302E030E08C91E82FE695E695E69590E2E99F5B
S11302F0F0011124FA5F8770B90102C0660F771FFD
S11303008A95E2F761838D91E82FE695E695E69567
S113031070E2E79FF0011124FA5F8770B90102C00F
S1130320660F771F8A95E2F76583A417B507C9F6A8
S113033020910620E22FE695E695E69570E2E79F88
S1130340F0011124FA5F277081E090E0AC01022EE5
S113035002C0440F551F0A94E2F742837096E20FDD
S1130360F11D2FB72983F8943981208127702083C8
S11303702081286120833FBF20910520E22FE6954C
S1130380E695E69530E2E39FF0011124FA5F2770C9
S1130390AC0102C0440F551F2A95E2F741834683FE
S11303A020910420E22FE695E695E69550E2E59F3C
S11303B0F0011124FA5F2770BC0102C0660F771F99
S11303C02A95E2F76183668325E020937100E0E0DB
S11303D0F2E021E0208334E0318340E14283138260
S11303E0348320A312A220910320E22FE695E69500
S11303F0E69570E2E79FF0011124FA5F2770AC01E3
S113040002C0440F551F2A95E2F74283209102202F
S1130410E22FE695E695E69550E2E59FF00111247A
S1130420FA5F277002C0880F991F2A95E2F782832A
S11304300F900F90DF91CF910895880F880F880F48
S1130440E0E0F2E081A380A1806880A38FED9EE2CA
S11304500197F1F700C00000868186838089918925
S11304600895089540E058E168E080E496E0F4D40B
S1130470E0E4F6E081E082878187089510924A06DD
S113048008951F920F920FB60F9211240F900FBE72
S11304900F901F90189508952F923F924F925F925C
S11304A06F927F928F929F92AF92BF92CF92DF9280
S11304B0EF92FF920F931F93CF93DF93CDB7DEB7E5
S11304C02C97CDBFDEBF80911F22909120220196F0
S11304D080931F229093202280FFB9C3B0901E22E4
S11304E0B110C6C100916822109169220F2EF7E065
S11304F06F2EF0E27F2EF02D0F2EFBED4F2EF1E24A
S11305005F2EF02D27E232E229833A8389E591E2D6
S11305108B839C83AAE9B1E2AD83BE830F2EF8E1FD
S1130520CF2EF1E2DF2EF02DEE24E394F12C0F2EEA
S1130530F9E18F2EF0E29F2EF02D6894222421F809
S11305403B2C6F827886F3018081E82FE695E6954F
S1130550E69520E2E29FF0011124FA5F8770D7014B
S113056002C0AA0FBB1F8A95E2F7A683A4E1B0E2FA
S1130570A6012D813E816B817C81E981FA814986C6
S11305805A86AB87BC87AB85BC858D91AB87BC870E
S1130590A82EA694A694A694B0E2AB9E5001112472
S11305A09AEFB91AD5011896BC908770D70102C08A
S11305B0AA0FBB1F8A95E2F7CD018B2109F06AC00F
S11305C0B080B110D5C0B0905B22BB2081F12082F5
S11305D0DA018C91882389F05801AA0CBB1CA00E67
S11305E0B11ED501A25EBC4D91E09C9312968C93F2
S11305F0129711969C930F5F1F4FDB01BC90BB2099
S113060009F4ABC0C801880F991F800F911F825E47
S11306109C4DDC011C921296BC921297BB24B3949D
S11306201196BC920F5F1F4F33243394A1C0BB2497
S1130630B394B082D9018C91882389F05801AA0C13
S1130640BB1CA00EB11ED501A25EBC4D91E09C93D3
S113065012968C93129711969C930F5F1F4FA98546
S1130660BA85BC90BB2009F47BC0C801880F991FD0
S1130670800F911F825E9C4DDC011C921296BC92ED
S11306801297BB24B3941196BC920F5F1F4F33246F
S113069033946EC08081813081F51082D901BC9081
S11306A0BB2091F0C801880F991F800F911F825EB3
S11306B09C4DAA24A394DC01AC921296BC9212978E
S11306C011961C920F5F1F4FA985BA85BC90BB2061
S11306D009F449C0C801880F991F800F911F825ED9
S11306E09C4DDC011C921296BC92129711961C929E
S11306F00F5F1F4F332433943BC08230C9F51082FF
S1130700DA01BC90BB2091F0C801880F991F800FBB
S1130710911F825E9C4DAA24A394DC01AC92129694
S1130720BC92129711961C920F5F1F4FDB01BC9075
S1130730BB20E1F0C801880F991F800F911F825ED2
S11307409C4DDC011C921296BC92129711961C923D
S11307500F5F1F4F332433940BC03324339408C0EA
S11307603324339405C03324339402C033243394A4
S113077089859A850D9689879A873D96635F7F4F11
S1130780235F3F4F435F5F4FAB85BC85A815B90519
S113079009F0F9CEEF81F8858081FFEF6F1A7F0AA7
S11307A0E82FE695E695E69520E2E29FF001112414
S11307B0FA5F8770D70102C0AA0FBB1F8A95E2F7C0
S11307C0A583BFEF4B1A5B0AE981FA813196E9836D
S11307D0FA832B813C812F5F3F4F2B833C838D8198
S11307E09E8101968D839E839FEFC91AD90AA4E145
S11307F06A16A0E27A0609F0A4CE00936822109348
S1130800692230921E22311033C090910620E92FC4
S1130810E695E695E695B0E2EB9FF0011124FA5FC8
S11308203085292F277081E090E002C0880F991F3E
S11308302A95E2F7832391E009F090E080911D224C
S11308409817B1F090931D2281E080931E22F80145
S1130850EE0FFF1FE00FF11FE25EFC4D10828AE2F3
S113086082830F5F1F4F0093682210936922918344
S113087085E0E3DD20911E2221115EC02091232218
S113088030912422232B09F057C0E8EFF0E220E056
S113089030E0BC016B5F7F4F059741915191461742
S11308A0570708F042C08417950708F03EC0F901C5
S11308B0EC52FF4D4081442309F417C18091682212
S11308C090916922FC01EE0FFF1FE80FF91FE25E11
S11308D0FC4D51E0508342830196809368229093AB
S11308E069225183F901EA51FF4D5081511123C10D
S11308F08091682290916922FC01EE0FFF1FE80F9E
S1130900F91FE25EFC4D21E020834283019680932F
S1130910682290936922118281E090E080932322DF
S11309209093242280931E220DC02F5F3F4F2A30C4
S1130930310509F0B2CF06C0449720F41092232267
S11309401092242286E079DD20911E2221115EC0BE
S11309502091252230912622232B09F057C0ECE068
S1130960F1E220E030E0BC016B5F7F4F05974191DD
S113097051914617570708F042C08417950708F0AD
S11309803EC0F901E152FF4D4081442309F4B5C052
S11309908091682290916922FC01EE0FFF1FE80FFD
S11309A0F91FE25EFC4D51E050834283019680932F
S11309B06822909369225183F901EF50FF4D5081D1
S11309C05111FFC08091682290916922FC01EE0FC1
S11309D0FF1FE80FF91FE25EFC4D21E020834283F4
S11309E001968093682290936922118281E090E0BD
S11309F0809325229093262280931E220DC02F5F80
S1130A003F4F2630310509F0B2CF06C0449720F499
S1130A10109225221092262280911F22909120224A
S1130A20059708F414C110921F221092202280917D
S1130A301E22882309F40BC190911C22292F30E037
S1130A40F901EE0FFF1FE20FF31FE25EFC4D8281FE
S1130A50882309F463C0F901EE0FFF1FE20FF31FAF
S1130A60E25EFC4D9081992379F0F901EE0FFF1FAE
S1130A702E0F3F1FF901E25EFC4D9181992311F085
S1130A80A0D210C083D20EC0F901EE0FFF1F2E0FAB
S1130A903F1FF901E25EFC4D9181992311F0E7D2E9
S1130AA001C0A9D2882309F4D2C080911C228F5F8F
S1130AB080931C2290E02091682230916922821751
S1130AC093070CF4C4C010921C2210926822109256
S1130AD0692210921E22E0E2F3E28CE593E2108296
S1130AE03396E817F907D9F7B2C0F901EA51FF4D77
S1130AF04081442309F410CF41C0F901EF50FF4D68
S1130B004081442309F472CF7FC010921C221092BA
S1130B1068221092692210921E22DDCF9F5F90936B
S1130B201C22892F90E0209168223091692282173B
S1130B3093075CF78CC02091682230916922F901F7
S1130B40EE0FFF1FE20FF31FE25EFC4D1082528393
S1130B50C901019661E06183FC01EE0FFF1F8E0F56
S1130B609F1FFC01E25EFC4D108252832E5F3F4FBB
S1130B7020936822309369221182BACE2091682290
S1130B8030916922F901EE0FFF1FE20FF31FE25EBD
S1130B90FC4D10824283C901019651E05183FC014E
S1130BA0EE0FFF1F8E0F9F1FFC01E25EFC4D1082B3
S1130BB042832E5F3F4F2093682230936922118233
S1130BC0ABCE2091682230916922F901EE0FFF1F0C
S1130BD0E20FF31FE25EFC4D10825283C9010196BD
S1130BE061E06183FC01EE0FFF1F8E0F9F1FFC016C
S1130BF0E25EFC4D108252832E5F3F4F20936822A9
S1130C00309369221182DECE2091682230916922CC
S1130C10F901EE0FFF1FE20FF31FE25EFC4D10829D
S1130C204283C901019651E05183FC01EE0FFF1F7D
S1130C308E0F9F1FFC01E25EFC4D108242832E5FEB
S1130C403F4F20936822309369221182CFCE2C9695
S1130C50CDBFDEBFDF91CF911F910F91FF90EF9039
S1130C60DF90CF90BF90AF909F908F907F906F90C8
S1130C705F904F903F902F90089508950F931F9386
S1130C80CF93DF93CDB7DEB72797CDBFDEBF8FEF0E
S1130C90809370008093710080937200809373003E
S1130CA080937400809375008093760065E081E4FE
S1130CB090E0DAD66CE170E082E0DCD68A836DE104
S1130CC070E082E0D7D6898389819A81019621F4E4
S1130CD080E493E289839A8389819A818B839C83BC
S1130CE0E0E6F0E082838C8183838FB78E83F8946F
S1130CF09E81E0E5F0E08081826080839FBF8181F6
S1130D0081FFFDCF8FB78F83F8949F8100E510E0BA
S1130D10D80116968C911697897F16968C93169700
S1130D20E0E6F0E080E885838BEB868316968C9171
S1130D301697846016968C938081816080839FBF10
S1130D4061E080E490E090D68FB78D83F8949D8124
S1130D50F80180818E7F80839FBF2796CDBFDEBF41
S1130D60DF91CF911F910F910895CF93DF931F923D
S1130D70CDB7DEB79FB79983F8949981E82FF0E057
S1130D80E059FF4F60958081682360839FBF0F9077
S1130D90DF91CF910895CF93DF931F92CDB7DEB744
S1130DA09FB79983F8949981E82FF0E0E059FF4FB9
S1130DB08081682B60839FBF0F90DF91CF9108954E
S1130DC0CF93DF9300D0CDB7DEB7863011F060E06B
S1130DD001C068E18091510081FD2AC08FB78983E9
S1130DE0F8949981E0E5F0E08081826080839FBF80
S1130DF0818181FFFDCF8FB78A83F8949A81A0E522
S1130E00B0E016968C911697897F16968C93169758
S1130E10E0E6F0E080E885838BEB868316968C9180
S1130E201697846016968C938081816080839FBF1F
S1130E30636084E490E018D660E480E096DF0F906D
S1130E400F90DF91CF91089560E480E0A4DF60E02B
S1130E5084E490E009C60895CF93DF93FC0120E079
S1130E6030E0C62FD0E0DE01022E02C0B595A79572
S1130E700A94E2F7A0FD508B2F5F3F4F3196283044
S1130E80310589F740FF0AC041FF03C0FC016583B7
S1130E9002C0FC016683FC01618302C0FC01628321
S1130EA0DF91CF91089580E00895309162232091DD
S1130EB06323822F90E00297B9F4311117C0809117
S1130EC0662390916723019799F4E0E6F3E28CE7B7
S1130ED092E28087918789E997E08487958781E00A
S1130EE090E082879387089580E0089580E00895D4
S1130EF080E008951092802210927E221092722235
S1130F0088E0E3E7F2E2DF011D928A95E9F71092A7
S1130F107B220C94301508950C943415089525E51E
S1130F2037E049E150E26EE772E280E892E2D3C032
S1130F30089580917C22A1CE08950F931F938091F0
S1130F407222811118C088E0E3E7F2E2AAE6B2E275
S1130F5001900D928A95E1F710927B220FEB17E036
S1130F6028E030E04AE652E260E081E80E940C1298
S1130F708093722201C080E01F910F910895109216
S1130F80722280917B228111D8CF08951F93CF9331
S1130F90DF931F92CDB7DEB79FB79983F894198179
S1130FA0E3E7F2E2809590818923808381E0809356
S1130FB07B22C3DF1FBF81E00F90DF91CF911F9190
S1130FC008951F93CF93DF931F92CDB7DEB79FB7DA
S1130FD09983F8941981E3E7F2E29081892B808365
S1130FE081E080937B22A9DF1FBF81E00F90DF9116
S1130FF0CF911F9108951F93CF93DF931F92CDB785
S1131000DEB79FB79983F89419819091752299233B
S113101041F08917A9F0E6E7F2E293E0219121116A
S113102002C01FBF1EC0281721F09F5F9830B1F780
S113103005C0983019F0973020F00CC01FBF11C0C4
S113104092E0E92FF0E0ED58FD4D818180839F5FB0
S11310509730B9F710927A2281E080937B226DDF7A
S11310601FBF81E00F90DF91CF911F9108951F93CF
S1131070CF93DF931F92CDB7DEB79FB79983F894D0
S11310801981909175229923B1F0891741F0A6E74F
S1131090B2E2E3E09D91992349F0981303C01FBF86
S11310A081E014C0EF5FE830A9F702C0E83021F412
S11310B01FBF80E00BC0E2E0F0E0ED58FD4D8083FF
S11310C081E080937B2239DF1FBF81E00F90DF91A5
S11310D0CF911F910895CF93DF93DC01EA019091A2
S11310E0602399230CF068C0907609F045C0809184
S11310F06123863009F040C076D1DC011A962C9128
S11311001A97213209F077C02091632330E021320D
S11311103105B1F49C01275F3F4F2093682330933E
S11311206923E0E6F3E219968C912681378190E0F9
S11311302817390708F4C9018287938781E068C0BA
S1131140FC01478550E04217530709F056C0C0938D
S11311506823D0936923E0E6F3E226813781DC013A
S113116050968D919C9151972817390708F4C9011D
S11311708287938781E04CC0903209F040C080910F
S11311806123823039F0833071F08130D1F5F90177
S113119009953EC0E0E6F3E2A087B18781E090E0E4
S11311A08287938735C0E0E6F3E26087718781E048
S11311B090E0828793872CC09076903221F58091BD
S11311C061238A3039F08B3051F08930F1F4F90120
S11311D009951EC0809163238C9381E019C080918E
S11311E0662390916723892B91F480916223DB011C
S11311F08C9381E00DC080E00BC080E009C080E0EA
S113120007C080E005C080E003C080E001C080E04A
S1131210DF91CF910895E0918622F0918722019089
S1131220F081E02D228133812E0F3F1FFC0140818C
S1131230E40FF11DE217F307A0F481818430A1F0DB
S1131240861306C014C081818430A1F08617A9F0EA
S11312508081E80FF11DE217F307A8F380E090E026
S1131260089580E090E0089580E090E008958E2F46
S11312709F2F089580E090E008958E2F9F2F08956A
S1131280809162238F77C8C708959091882299230B
S113129081F1E0918622F09187220190F081E02D86
S11312A09481891740F5E0938422F093852222816A
S11312B033812E0F3F1FE217F307F8F49181943026
S11312C061F49281891309C09381961306C0E09357
S11312D08422F093852281E008959081E90FF11D25
S11312E0E217F30758F3E0938422F093852280E019
S11312F0089580E0089580E0089580E00895EF92D5
S1131300FF921F93CF93DF93C82F60E0BEDF182FA7
S1131310882381F1A0918622B0918722EC2FF0E0FE
S1131320EE0FFF1F12968D919C911397E80FF91FF2
S1131330E080F180D7011696ED91FC9117970995FD
S1131340682F8C2FA2DF182F8823A1F0C09184224C
S1131350D091852265E0CE015EDFEC01892B21F07E
S11313608A810E942513F6CFD7011296ED91FC9144
S113137013970995812FDF91CF911F91FF90EF90E3
S113138008951F93CF93DF93182F7FDF882339F1BC
S1131390C0918422D091852265E0CE013CDFEC012E
S11313A0892B41F04C815D816B818A8147D7811102
S11313B0F3CF15C0A0918622B0918722E12FF0E0EF
S11313C0EE0FFF1F12968D919C911397E80FF91F52
S11313D00190F081E02D0190F081E02D0995DF91DD
S11313E0CF911F9108958091842290918522089530
S11313F09DC60895CF93809188228823C1F0E091FF
S11314008622F09187220190F081E02D8481882347
S113141071F0C0E08C2F73DFCF5FE0918622F091F2
S113142087220190F081E02D8481C81798F31092EF
S1131430882280918C2281FD0E942D1581E090E00C
S113144080938C2290938D22CF91089516D6D2CF7B
S11314500895CF9380918822882349F1A091862210
S1131460B0918722ED91FC91119784818823F9F042
S1131470C0E0EC2FF0E0EE0FFF1F12968D919C91CF
S11314801397E80FF91F0190F081E02D0084F18596
S1131490E02D309709F00995CF5FA0918622B09195
S11314A08722ED91FC9111978481C81710F3CF9195
S11314B008950F931F93CF93DF93E0E6F3E2128630
S11314C013861486158616861786808188230CF069
S11314D07EC220916623309167232115310509F0DE
S11314E07BC26DC28F7109F0A0C0909161239630C8
S11314F079F0983009F48FC0911197C022303105EA
S113150009F019C262E070E08CE892E290D669C2F8
S11315108091622390916323292F33272230310550
S1131520A9F020F42130310541F0C7C12330310541
S1131530D9F12F30310551F1C0C180915E209091D5
S11315405F20DC016C9170E072D656C0E0915E20A1
S1131550F0915F202189821708F0EDC19927880F47
S1131560991F880F991FE0916020F0916120E80F86
S1131570F91F80819181FC016281738158D6E091C9
S11315806823F091692382E0818336C080916220D0
S113159090916320009709F4CEC1DC0112966D91FD
S11315A07C91139744D628C099278130910571F016
S11315B038F0029709F08AC1E8EBF0E23CE009C098
S11315C064E070E080ED90E232D616C0E5ECF0E223
S11315D039E0A0EAB0E220E0819190E08D939D9300
S11315E02F5F2317C8F3632F660F6E5F60939E20EF
S11315F070E08EE990E21BD6E0E6F3E28681978103
S1131600228533858217930708F0EBC180936A2300
S113161090936B23E6C12130310509F08CC161E060
S113162070E088E892E203D6DCC18130E1F5909164
S113163061239A30C1F52130310509F04CC1809104
S11316408822882309F447C1C0916423D09165237B
S11316500091862210918722D801ED91FC9184811A
S1131660C81708F038C160E08C2F0FDE882309F416
S11316702DC1CE019927880F991FD8011296ED919B
S1131680FC911397E80FF91F0190F081E02D8681FA
S11316909781FC01099580938A2261E070E08AE8D1
S11316A092E2C5D59EC1823009F010C180916123B8
S11316B0811105C12230310509F03DC180916423B7
S11316C04ED690E0809382229093832262E070E071
S11316D082E892E2ACD585C18F7109F09FC09091E8
S11316E06123933091F118F49130A9F097C09530AB
S11316F021F0993009F443C091C080916623909100
S11317006723892B09F017C180E499E080936C2347
S113171090936D2366C18091662390916723892BF2
S113172009F009C18091622390916323019709F024
S113173002C180918C2290918D228D7F80938C2286
S113174090938D220E942D154CC180916623909117
S11317506723892B09F0EFC0809162239091632362
S1131760019709F0AEC080918C2290918D22826005
S113177080938C2290938D220E942A1532C18091ED
S1131780662390916723892B09F0D5C048D5882317
S113179009F49CC020916223309163233327E091A4
S11317A05E20F0915F20818990E08217930708F40E
S11317B08DC020DE809162239091632380938822E0
S11317C0882309F40EC199278150904C880F991FE2
S11317D0880F991FE0916020F0916120E80FF91FB4
S11317E0E0938622F09387220190F081E02D84819A
S11317F0882309F4F6C0C0E060E08C2FC2DD8823A2
S113180009F464C0CF5FE0918622F09187220190B1
S1131810F081E02D8481C81778F3E3C08130E9F4C6
S1131820909161239B30C9F4809166239091672342
S1131830892B09F050C080918822882309F44BC079
S1131840E0E6F3E2C481D2818C2F59DD882309F4C8
S11318503DC06D2F8C2F95DD37C08230B9F5809156
S11318606123813019F0833099F02DC08091662373
S113187090916723892B09F05EC080916223909137
S11318806323892B09F057C08091642383D51CC03E
S11318908091662390916723892B09F04CC0809135
S11318A0622390916323892B09F045C0C0E6D3E2FB
S11318B08C817CD68C81E5D607C080E005C080E0B1
S11318C003C080E001C080E081118CC0809160235E
S11318D08F71813081F580918822882309F471C049
S11318E00091642310916523C0918622D0918722B0
S11318F0E881F9818481081708F065C060E0802FD1
S1131900C4DC8823C1F0F801FF27CF01880F991F99
S1131910EA81FB81E80FF91FC081D181EE81FF814B
S11319200995682F802FB1DC882329F0EC81FD8193
S11319300995811157C0809160238F71823009F01D
S113194044C0809188228823B1F1A0918622B0916D
S11319508722ED91FC9111978481882371F1C0E075
S1131960EC2FF0E0EE0FFF1F12968D919C911397D0
S1131970E80FF91F00811181D8011696ED91FC91B1
S113198017970995682F8C2F80DC882359F1D8018B
S11319901496ED91FC9115970995811123C0CF5FA1
S11319A0A0918622B0918722ED91FC9111979481A8
S11319B0C917B0F217C080E015C080E013C080E002
S11319C011C080E00FC080E00DC080E00BC0982FF4
S11319D0907609F07BCF80CE982F907609F076CF61
S11319E081CD81E0DF91CF911F910F91089541E066
S11319F050E460E180E296E02FDA41E050E460E2F6
S1131A0080E296E029DA41E050E460E480E296E086
S1131A1023DA41E050E462E080E296E01DDA41E03E
S1131A2050E060E280E896E017DA43E050E060E1DD
S1131A3080E896E011DA40E058E168E080E496E05E
S1131A400BDA40E058E162E080E896E005DA40E035
S1131A5058E164E080E896E0FFD940E058E168E0AE
S1131A6080E896E0F9C908951BBEFC0128ED24BF67
S1131A70608308954091CA01E62FF72F8093CA012D
S1131A8084914093CA010895CF93DF9300D0CDB7DA
S1131A90DEB7811126C090911C239923F9F090910F
S1131AA05B23911101C0FFCF9FB79A83F8942A81D9
S1131AB0EAE5F3E29181915091832FBF0FC0909199
S1131AC05B239F3F09F4FFCF9FB79983F894298143
S1131AD0EAE5F3E291819F5F91832FBF80931C23FA
S1131AE005C090911C23992351F3F8CF0F900F90C8
S1131AF0DF91CF9108950F93E8ECF4E080818F7D1E
S1131B00808380818F7D8083E0E0F3E202E00593AF
S1131B10109202231092032300E2069300E406933A
S1131B20E8EFF2E200E40693E0E6F3E214861586B9
S1131B3016861786128613861092ED220F91089549
S1131B400F9385E08093ED22E1E0F3E204E0059356
S1131B50E9EFF2E204E005930F9108950F9383E017
S1131B608093ED221092022310920323E0E0F3E22B
S1131B7002E006930F910895E0916C23F0916D2398
S1131B80309709F0099508950F93CF93DF938091CF
S1131B90ED22833019F4F0DFAEDF5EC08091E922DC
S1131BA09091EA22C0916A23D0916B23C81BD90B70
S1131BB071F52091EB223091EC22820F931F8093D8
S1131BC0EB229093EC2220916623309167238217B5
S1131BD0930721F080918E22882341F084E0809342
S1131BE0ED22E8EFF2E202E0069336C0E0916E23C4
S1131BF0F0916F23309799F00995882381F0109222
S1131C00E9221092EA22C0916A23D0916B23C83052
S1131C10D10528F010928E22C8E0D0E003C081E004
S1131C2080938E22E0EFF2E2C28BD38B8091E92283
S1131C309091EA222091682330916923280F391F5B
S1131C40248B358BC80FD91FC093E922D093EA2285
S1131C50E0E0F3E202E00693DF91CF910F91089563
S1131C60FC018181E82FE7708E2F90E0FC01319711
S1131C70E730F105C0F4E250FF4F0DC780E190E07A
S1131C80089580E290E0089580E490E0089580E86B
S1131C9090E0089580E091E0089580E092E0089556
S1131CA08FEF93E0089588E090E00895282F2F7037
S1131CB030E0220F331F082E000C990B8827990F50
S1131CC0881F9927820F931F02979C01220F331FAD
S1131CD0220F331F220F331F820F931F81539D4DF9
S1131CE008950F93CF938091CC0480FF64C081E06A
S1131CF08093CC04E8EFF2E200E80693E0E0F3E23C
S1131D0000E806938093CA04E8EFF2E200E1069348
S1131D108091ED22882329F08350823008F42CDF4F
S1131D20EADE8091FA229091FB22089709F045C0DF
S1131D3088E0E1EEF2E2A0E6B3E201900D928A952A
S1131D40E1F7E8ECF4E08081806280838081806246
S1131D508083AFDBC82F811103C0F2DEC1E02EC047
S1131D608091602388236CF41092EB221092EC2271
S1131D701092E9221092EA2282E08093ED2204DF9D
S1131D801DC08091662390916723892B11F4E6DEB0
S1131D9015C01092EB221092EC221092E9221092BC
S1131DA0EA2281E08093ED22E8EFF2E202E006937A
S1131DB000E2069303C0C0E001C0C1E08C2FCF91C4
S1131DC00F9108958F929F92AF92BF92DF92EF92FC
S1131DD0FF920F931F93CF93DF93D82E67DF8C016D
S1131DE0CD2DCF70D0E0CE01880F991FCD2D0D2CB5
S1131DF0000CDD0BCC27DD0FCC1FDD27C80FD91F4E
S1131E00CE01880F991F880F991F880F991F9C0175
S1131E1028503D4D7901C90123DF4C01DD200CF030
S1131E2070C0FE01EE0FFF1FEE0FFF1FEE0FFF1F2E
S1131E30E051FD4D26853785D80115968D919C91ED
S1131E401697820F931F15968D939C93169713964E
S1131E502D913C9114978217930709F43CC0281BD9
S1131E60390B2115B4E03B0738F02FEF33E0C901FB
S1131E70B401FDD5281B390BF801808181FF09C00D
S1131E80C901B401F4D541E0892B09F040E0842F65
S1131E9001C080E0D8019C9180FB91F99C93CC0F08
S1131EA0DD1FCC0FDD1FCC0FDD1FC051DD4D1E86A5
S1131EB01F862A873B8711962D913C911297159680
S1131EC08D919C911697820F931F8C879D87F701A4
S1131ED002E00693C6C0D8018C9181FFAFC08D7F0C
S1131EE08C93CC0FDD1FCC0FDD1FCC0FDD1FC05139
S1131EF0DD4D1E861F861A861B86F70102E00693B7
S1131F00B0C0FE01EE0FFF1FEE0FFF1FEE0FFF1F0D
S1131F10E051FD4DA284B384D8018C9182FF19C095
S1131F201196ED91FC91129715962D913C9116976F
S1131F3013968D919C911497B40199D5B0E4DB9ECE
S1131F40B0011124615B7D4DAC01CF01820F931F61
S1131F50A8D5F801258136812A0D3B1D25833683BA
S1131F60838194818217930768F485839683CC0FC9
S1131F70DD1FCC0FDD1FCC0FDD1FC051DD4D8E8565
S1131F809F855CC0FE01EE0FFF1FEE0FFF1FEE0FDB
S1131F90FF1FE051FD4D46855785A416B50609F08F
S1131FA04DC02817390709F449C0AC01421B530B33
S1131FB09A01211554E0350740F02FEF33E0C901B1
S1131FC0B40155D5281B390B05C0C901B4014FD53F
S1131FD0281B390BFE01EE0FFF1FEE0FFF1FEE0F44
S1131FE0FF1FE051FD4D128613862815390578F43C
S1131FF0D8018C9184608C93B0E4DB9EC0011124E1
S1132000815B9D4D848795878686978613C0F801EA
S11320104181528185819681840F951FCC0FDD1FEC
S1132020CC0FDD1FCC0FDD1FC051DD4D8C879D878C
S11320302E873F87F70102E0069313C0D8018C91E5
S113204080FF0FC08E7F8C931796ED91FC911897AB
S1132050309739F015966D917C9116974D2D80E04F
S11320600995DF91CF911F910F91FF90EF90DF9031
S1132070BF90AF909F908F9008951F93CF93DF935D
S113208000D0CDB7DEB78FB78983F8941981E1EC1E
S1132090F4E080818E7F80831092C00410820E94BD
S11320A0240780E0F1DC80915F23811101C0FFCF20
S11320B08FB78A83F8949A81EAE5F3E285818150A7
S11320C085839FBF1FBF0F900F90DF91CF911F910A
S11320D008951F93CF93DF931F92CDB7DEB78FB7C9
S11320E08983F894198181E0CFDCEAECF4E080E4A0
S11320F0808380E28083E1ECF4E0808181608083EE
S1132100A9ECB4E08C9182608C93E8ECF4E08081DB
S1132110806480838C9181608C93808180688083CB
S11321201FBF0F90DF91CF911F9108950F931F93BD
S1132130CF93DF9300D0CDB7DEB700E610E0F8010F
S1132140108280E30E94E006E0ECF4E08081806489
S1132150808381E0F80180838FB78A83F8941A81A1
S1132160E0EFF2E21186118A118E11A2EFECF2E295
S113217080818E7F8083E8EDF2E280818E7F808390
S11321806AE170E082E076DC8F3F19F08093FA0414
S113219003C08FE18093FA046BE170E082E06ADCB3
S11321A08F3F19F08093FB0403C08FE18093FB04FD
S11321B0E0ECF4E0808181608083808180688083AA
S11321C080818061808388EF92E286839783808117
S11321D0806280838FEF8093C504E8ECF4E0808113
S11321E08160808310921C2380915F238F3F09F4C8
S11321F0FFCF8FB78983F8949981EAE5F3E285816B
S11322008F5F85839FBF65DF1FBF0F900F90DF91A6
S1132210CF911F910F9108958093C30408958091E5
S1132220C304089580911823909119230895E0E63A
S1132230F3E280879187628773870895282F2F7030
S113224030E0220F331F082E000C990B8827990FBA
S1132250881F9927820F931FFC01EE0FFF1FEE0FBB
S1132260FF1FEE0FFF1FE051FD4D2185207C09F07B
S113227072C06370613011F018F404C060EC03C0E4
S113228060E801C060E440385105E9F050F44032A0
S11322905105A9F040345105A1F040315105D9F45C
S11322A00CC0411522E0520791F04F3F23E0520742
S11322B081F04115514079F408C021E00DC022E0BD
S11322C00BC023E009C024E007C025E005C026E0D8
S11322D003C027E001C020E0FC01EE0FFF1FEE0F5A
S11322E0FF1FEE0FFF1FE051FD4D1186DC01AA0F09
S11322F0BB1FAA0FBB1FAA0FBB1FA850BD4D36E0C2
S11323003C93262B2187FC01EE0FFF1FEE0FFF1FCE
S1132310EE0FFF1FE051FD4D2185207C203C69F428
S1132320FC01EE0FFF1FEE0FFF1FEE0FFF1FE0512A
S1132330FD4D21852770273081F0880F991F880F64
S1132340991F880F991FFC01E051FD4D8185806222
S1132350818781E0089580E0089581E00895E82F61
S1132360EF70F0E0EE0FFF1F082E000C990B88278A
S1132370990F881F9927E80FF91FEE0FFF1FEE0F23
S1132380FF1FEE0FFF1FE051FD4D818582FB882763
S113239080F908950F93282F2F7030E0A901440F7E
S11323A0551F282F082E000C330B2227330F221F12
S11323B03327240F351FF901EE0FFF1FEE0FFF1F08
S11323C0EE0FFF1FE850FD4D01E00693F901EE0FFB
S11323D0FF1FEE0FFF1FEE0FFF1FE051FD4D918514
S11323E092FF17C0220F331F220F331F220F331FF8
S11323F0F901E051FD4D91859B7F918757DCFC01EC
S1132400808180FF06C08E7F80830780F085E02D69
S1132410099581E00F9108956F927F928F929F9218
S1132420AF92BF92CF92DF92EF92FF920F931F93DE
S1132430CF93DF931F92CDB7DEB7782E662E4A0175
S1132440590134DC6C01272D872D8F70E82EF12C77
S1132450C701880F991FE72C072C000CFF08EE24F6
S1132460FF0CEE1CFF24E80EF91EF701EE0FFF1F10
S1132470EE0FFF1FEE0FFF1FE051FD4D8185807CA5
S113248009F481C0F701EE0FFF1FEE0FFF1FEE0FDF
S1132490FF1FE051FD4D8185807C803C61F0F70198
S11324A0EE0FFF1FEE0FFF1FEE0FFF1FE051FD4D5C
S11324B0818582FD6AC08FB78983F8948981F6018A
S11324C0908190FF03C08FBF80E060C0F6019081CF
S11324D0916090838FBF81829282A382B48215829D
S11324E0168207831087611006C091E0A114B1041D
S11324F019F090E001C091E0F601808190FB81F930
S11325008B7F8083222364F4F701EE0FFF1FEE0F0D
S1132510FF1FEE0FFF1FE051FD4D168617862FC0DB
S1132520F701EE0FFF1FEE0FFF1FEE0FFF1FE0512D
S1132530FD4D8185807C803CA9F4C701880F991FDB
S1132540880F991F880F991F88509D4D89DBBC0106
S1132550C5018DD2892B31F0F60180818E7F808375
S113256080E014C0F701EE0FFF1FEE0FFF1FEE0F08
S1132570FF1FE051FD4D1286138616861786872DA0
S113258021DC81E003C080E001C080E00F90DF9196
S1132590CF911F910F91FF90EF90DF90CF90BF905C
S11325A0AF909F908F907F906F900895FF920F93BC
S11325B01F93CF93DF93182FC82FCF70D0E0CE0195
S11325C0880F991FC12F012E000CDD0BCC27DD0FC6
S11325D0CC1FDD27C80FD91F812F68DBDC01FE016A
S11325E0EE0FFF1FEE0FFF1FEE0FFF1FE850FD4D14
S11325F002E005938C9180FF22C08E7F8C93179606
S1132600ED91FC9118973097D1F011235CF4CC0F25
S1132610DD1FCC0FDD1FCC0FDD1FC051DD4D6E85DE
S11326207F850AC0CC0FDD1FCC0FDD1FCC0FDD1F53
S1132630C051DD4D6A857B85412F81E00995DF918D
S1132640CF911F910F91FF900895CF93C82FAEDFC4
S1132650EC2FEF70F0E0EE0FFF1F8C2FCC0F990BD7
S11326608827990F881F9927E80FF91FEE0FFF1F7E
S1132670EE0FFF1FEE0FFF1FE051FD4D1186CF91AE
S11326800895E82FEF70F0E0EE0FFF1F282F082EBB
S1132690000C330B2227330F221F3327E20FF31FC3
S11326A0EE0FFF1FEE0FFF1FEE0FFF1FE051FD4D5A
S11326B09185946091877ADF81E008951F920F924B
S11326C00FB60F9211240F932F933F934F935F9361
S11326D06F937F938F939F93AF93BF93EF93FF93E6
S11326E08091CB0488233CF480E88093CA040E9440
S11326F0290AA8D184C08091CB0482FF20C084E041
S11327008093CA048091002386FF79C08091CC0411
S113271081FD75C0E6DA811172C08091ED228130AD
S113272011F41CDA6CC0843009F069C0E1E0F3E212
S113273004E00593E9EFF2E204E0059360C08091C0
S1132740CB0481FF57C082E08093CA048091F822B1
S113275086FF55C08091CC0481FD51C0C2DA81113D
S11327604EC08091ED22823041F484E08093ED22CA
S1132770E8EFF2E202E0069342C0833009F03FC082
S1132780E1E0F3E204E00593E9EFF2E204E005930B
S113279036C080E18093CA0481E008DF81E806DF67
S11327A00E94FA091092C304E0EFF2E2118696E067
S11327B0908780E48187118A908B818B81EE92E2ED
S11327C08487958798D91BC08091CB0486FF07C066
S11327D080E48093CA0480E057D92ED110C0809140
S11327E0CB0485FF0CC080E28093CA0481E04CD9FD
S11327F026D105C08091CB0484FFE6CFCACFFF91D8
S1132800EF91BF91AF919F918F917F916F915F9164
S11328104F913F912F910F910F900FBE0F901F90EA
S113282018951F920F920FB60F9211240F931F93B6
S11328302F933F934F935F936F937F938F939F93C4
S1132840AF93BF93CF93DF93EF93FF938091CC0427
S113285081FD03C046DA8111BBC082E08093CC04C1
S11328608091C5048195880FE8EFF2E2E81BF10935
S113287020813181285F32423695279536952795F8
S113288036952795822F869520FD02C090E001C0E1
S113289090E8890FE82FEF70F0E0EE0FFF1F282F6C
S11328A0082E000C330B2227330F221F3327E20F8D
S11328B0F31FDF01AA0FBB1FAA0FBB1FAA0FBB1F69
S11328C0A850BD4D9C9195FF83C0FD0100E2069385
S11328D0811179C08091ED22843019F44DD90BD93E
S11328E077C00091FA221091FB2280916A23909183
S11328F06B23C091E922D091EA2298012C0F3D1F4D
S11329008217930718F48C010C1B1D0B809168230C
S113291090916923A80161EE72E28C0F9D1FC1D0D2
S1132920C00FD11FC093E922D093EA2208301105C9
S113293069F48091EB229091EC228C0F9D1F2091E1
S11329406623309167238217930780F0E0E6F3E271
S1132950C287D3870684F785E02D309729F009953F
S1132960811102C0EDD834C0F9D832C080916A23F5
S113297090916B23C817D907F9F4E0916E23F09175
S11329806F23309711F4DCD823C00995811102C05C
S1132990D7D81EC02091EB223091EC228091E922FD
S11329A09091EA22820F931F8093EB229093EC2262
S11329B01092E9221092EA22E8EFF2E202E0069392
S11329C000E2069305C0803811F4DED801C0FAD9BC
S11329D0FF91EF91DF91CF91BF91AF919F918F9133
S11329E07F916F915F914F913F912F911F910F9123
S11329F00F900FBE0F901F90189587E08093A20050
S1132A007894EAE5F3E2108211821282138214822E
S1132A1081E085830E943E060E94F70C0E943201E9
S1132A200E9431020E94F80986E080934106809357
S1132A3046060E942301FDCF0C94310208950C94A4
S1132A404B02089580911D23882319F0EBDB0C942D
S1132A504C0208950C94320208950C943E02089599
S1132A6081E080931D23089510921D230895AA1BCD
S1132A70BB1B51E107C0AA1FBB1FA617B70710F065
S1132A80A61BB70B881F991F5A95A9F78095909597
S1132A90BC01CD010895EE0FFF1F0590F491E02DC8
S1132AA00994FB01DC0102C001900D924150504099
S10B2AB0D8F70895F894FFCF54
S1132AB8FE2006051211131415161718191A1B1CD3
S1132AC81D202122000102030405010906A10105B4
S1132AD80719E029E7150025017501950881028188
S1132AE801190029651500256575089506810005F5
S1132AF80819012905150025017501950591029507
S1132B08039101C07A078C078F07530700008C20B4
S1132B18642000006A206820542009022200010170
S1132B2800E0320904000001030001000921110139
S1132B380001223B0007058103080002120100027C
S1132B4800000008EB030124000101020001000356
S1132B580000000000000000000000000000000069
S1132B680000000000000000484944204B657962D9
S1132B786F6172640041544D454C20415346000036
S1132B880403090400000000000000000000000223
S1132B98020202020200434241403F3E3D3C3B3AAE
S1132BA8003F3E3D3C3B3A001E002E003C004A00DC
S1132BB8560062006E007B008700940023003700F3
S1132BC849005A006B007B00000000000000000070
S1132BD80000010101012020002020200000000045
S1132BE80000040000002020200000000000000075
S1132BF82020002020200000000000000000000029
S1132C080000000000000000003918191A110B0810
S1132C18242526061B19001F2307262734212223CF
S1132C284A524B002F300F241E2D1E1F2050004FD8
S1132C384C3337362038225627374D514E00000082
S1132C48002C002A000000290028000000000000D1
S1132C580000000001010101000000000000000064
S1132C680000000004000000000000000000002034
S1132C780000002000000000000000000000000028
S1132C880000000000000000000000391B1C1D109B
S1132C980A09242526061B190004050612151621FF
S1132CA822234A524B000C0D0E1314171E1F2050DA
S1132CB8004F4C33362E5455575627374D514E0036
S10F2CC80000002C002A00000029002855
S9030000FC
